{
  "_format": "hh-sol-artifact-1",
  "contractName": "MyEpicNFT",
  "sourceName": "contracts/MyEpicNFT.sol",
  "abi": [
    {
      "inputs": [],
      "stateMutability": "nonpayable",
      "type": "constructor"
    },
    {
      "anonymous": false,
      "inputs": [
        {
          "indexed": true,
          "internalType": "address",
          "name": "owner",
          "type": "address"
        },
        {
          "indexed": true,
          "internalType": "address",
          "name": "approved",
          "type": "address"
        },
        {
          "indexed": true,
          "internalType": "uint256",
          "name": "tokenId",
          "type": "uint256"
        }
      ],
      "name": "Approval",
      "type": "event"
    },
    {
      "anonymous": false,
      "inputs": [
        {
          "indexed": true,
          "internalType": "address",
          "name": "owner",
          "type": "address"
        },
        {
          "indexed": true,
          "internalType": "address",
          "name": "operator",
          "type": "address"
        },
        {
          "indexed": false,
          "internalType": "bool",
          "name": "approved",
          "type": "bool"
        }
      ],
      "name": "ApprovalForAll",
      "type": "event"
    },
    {
      "anonymous": false,
      "inputs": [
        {
          "indexed": false,
          "internalType": "address",
          "name": "sender",
          "type": "address"
        },
        {
          "indexed": false,
          "internalType": "uint256",
          "name": "tokenId",
          "type": "uint256"
        }
      ],
      "name": "NewEpicNFTMinted",
      "type": "event"
    },
    {
      "anonymous": false,
      "inputs": [
        {
          "indexed": true,
          "internalType": "address",
          "name": "from",
          "type": "address"
        },
        {
          "indexed": true,
          "internalType": "address",
          "name": "to",
          "type": "address"
        },
        {
          "indexed": true,
          "internalType": "uint256",
          "name": "tokenId",
          "type": "uint256"
        }
      ],
      "name": "Transfer",
      "type": "event"
    },
    {
      "inputs": [
        {
          "internalType": "address",
          "name": "to",
          "type": "address"
        },
        {
          "internalType": "uint256",
          "name": "tokenId",
          "type": "uint256"
        }
      ],
      "name": "approve",
      "outputs": [],
      "stateMutability": "nonpayable",
      "type": "function"
    },
    {
      "inputs": [
        {
          "internalType": "address",
          "name": "owner",
          "type": "address"
        }
      ],
      "name": "balanceOf",
      "outputs": [
        {
          "internalType": "uint256",
          "name": "",
          "type": "uint256"
        }
      ],
      "stateMutability": "view",
      "type": "function"
    },
    {
      "inputs": [
        {
          "internalType": "uint256",
          "name": "tokenId",
          "type": "uint256"
        }
      ],
      "name": "getApproved",
      "outputs": [
        {
          "internalType": "address",
          "name": "",
          "type": "address"
        }
      ],
      "stateMutability": "view",
      "type": "function"
    },
    {
      "inputs": [],
      "name": "getTotal",
      "outputs": [
        {
          "internalType": "uint256",
          "name": "",
          "type": "uint256"
        }
      ],
      "stateMutability": "view",
      "type": "function"
    },
    {
      "inputs": [
        {
          "internalType": "address",
          "name": "owner",
          "type": "address"
        },
        {
          "internalType": "address",
          "name": "operator",
          "type": "address"
        }
      ],
      "name": "isApprovedForAll",
      "outputs": [
        {
          "internalType": "bool",
          "name": "",
          "type": "bool"
        }
      ],
      "stateMutability": "view",
      "type": "function"
    },
    {
      "inputs": [],
      "name": "makeAnEpicNFT",
      "outputs": [],
      "stateMutability": "nonpayable",
      "type": "function"
    },
    {
      "inputs": [],
      "name": "name",
      "outputs": [
        {
          "internalType": "string",
          "name": "",
          "type": "string"
        }
      ],
      "stateMutability": "view",
      "type": "function"
    },
    {
      "inputs": [
        {
          "internalType": "uint256",
          "name": "tokenId",
          "type": "uint256"
        }
      ],
      "name": "ownerOf",
      "outputs": [
        {
          "internalType": "address",
          "name": "",
          "type": "address"
        }
      ],
      "stateMutability": "view",
      "type": "function"
    },
    {
      "inputs": [
        {
          "internalType": "uint256",
          "name": "tokenId",
          "type": "uint256"
        }
      ],
      "name": "pickRandomFirstWord",
      "outputs": [
        {
          "internalType": "string",
          "name": "",
          "type": "string"
        }
      ],
      "stateMutability": "view",
      "type": "function"
    },
    {
      "inputs": [
        {
          "internalType": "uint256",
          "name": "tokenId",
          "type": "uint256"
        }
      ],
      "name": "pickRandomSecondWord",
      "outputs": [
        {
          "internalType": "string",
          "name": "",
          "type": "string"
        }
      ],
      "stateMutability": "view",
      "type": "function"
    },
    {
      "inputs": [
        {
          "internalType": "uint256",
          "name": "tokenId",
          "type": "uint256"
        }
      ],
      "name": "pickRandomThirdWord",
      "outputs": [
        {
          "internalType": "string",
          "name": "",
          "type": "string"
        }
      ],
      "stateMutability": "view",
      "type": "function"
    },
    {
      "inputs": [
        {
          "internalType": "address",
          "name": "from",
          "type": "address"
        },
        {
          "internalType": "address",
          "name": "to",
          "type": "address"
        },
        {
          "internalType": "uint256",
          "name": "tokenId",
          "type": "uint256"
        }
      ],
      "name": "safeTransferFrom",
      "outputs": [],
      "stateMutability": "nonpayable",
      "type": "function"
    },
    {
      "inputs": [
        {
          "internalType": "address",
          "name": "from",
          "type": "address"
        },
        {
          "internalType": "address",
          "name": "to",
          "type": "address"
        },
        {
          "internalType": "uint256",
          "name": "tokenId",
          "type": "uint256"
        },
        {
          "internalType": "bytes",
          "name": "_data",
          "type": "bytes"
        }
      ],
      "name": "safeTransferFrom",
      "outputs": [],
      "stateMutability": "nonpayable",
      "type": "function"
    },
    {
      "inputs": [
        {
          "internalType": "address",
          "name": "operator",
          "type": "address"
        },
        {
          "internalType": "bool",
          "name": "approved",
          "type": "bool"
        }
      ],
      "name": "setApprovalForAll",
      "outputs": [],
      "stateMutability": "nonpayable",
      "type": "function"
    },
    {
      "inputs": [
        {
          "internalType": "bytes4",
          "name": "interfaceId",
          "type": "bytes4"
        }
      ],
      "name": "supportsInterface",
      "outputs": [
        {
          "internalType": "bool",
          "name": "",
          "type": "bool"
        }
      ],
      "stateMutability": "view",
      "type": "function"
    },
    {
      "inputs": [],
      "name": "symbol",
      "outputs": [
        {
          "internalType": "string",
          "name": "",
          "type": "string"
        }
      ],
      "stateMutability": "view",
      "type": "function"
    },
    {
      "inputs": [
        {
          "internalType": "uint256",
          "name": "tokenId",
          "type": "uint256"
        }
      ],
      "name": "tokenURI",
      "outputs": [
        {
          "internalType": "string",
          "name": "",
          "type": "string"
        }
      ],
      "stateMutability": "view",
      "type": "function"
    },
    {
      "inputs": [
        {
          "internalType": "address",
          "name": "from",
          "type": "address"
        },
        {
          "internalType": "address",
          "name": "to",
          "type": "address"
        },
        {
          "internalType": "uint256",
          "name": "tokenId",
          "type": "uint256"
        }
      ],
      "name": "transferFrom",
      "outputs": [],
      "stateMutability": "nonpayable",
      "type": "function"
    }
  ],
  "bytecode": "0x608060405260405180610160016040528061012f8152602001620044bc61012f913960089080519060200190620000389291906200067e565b506040518060c001604052806040518060400160405280600681526020017f4d455353492d000000000000000000000000000000000000000000000000000081525081526020016040518060400160405280600a81526020017f435249535449414e4f2d0000000000000000000000000000000000000000000081525081526020016040518060400160405280600981526020017f4445425255594e452d000000000000000000000000000000000000000000000081525081526020016040518060400160405280600781526020017f4d42415050452d0000000000000000000000000000000000000000000000000081525081526020016040518060400160405280600781526020017f4e45594d41522d0000000000000000000000000000000000000000000000000081525081526020016040518060400160405280600781526020017f5a4c4154414e2d000000000000000000000000000000000000000000000000008152508152506009906006620001b69291906200070f565b506040518060c001604052806040518060400160405280600481526020017f5053472d0000000000000000000000000000000000000000000000000000000081525081526020016040518060400160405280600781526020017f554e495445442d0000000000000000000000000000000000000000000000000081525081526020016040518060400160405280600581526020017f434954592d00000000000000000000000000000000000000000000000000000081525081526020016040518060400160405280600681526020017f4d494c414e2d000000000000000000000000000000000000000000000000000081525081526020016040518060400160405280600881526020017f415253454e414c2d00000000000000000000000000000000000000000000000081525081526020016040518060400160405280600a81526020017f4c49564552504f4f4c2d00000000000000000000000000000000000000000000815250815250600a906006620003349291906200070f565b506040518060c001604052806040518060400160405280600381526020017f415247000000000000000000000000000000000000000000000000000000000081525081526020016040518060400160405280600381526020017f504f52000000000000000000000000000000000000000000000000000000000081525081526020016040518060400160405280600381526020017f42454c000000000000000000000000000000000000000000000000000000000081525081526020016040518060400160405280600381526020017f535545000000000000000000000000000000000000000000000000000000000081525081526020016040518060400160405280600381526020017f465241000000000000000000000000000000000000000000000000000000000081525081526020016040518060400160405280600381526020017f4252410000000000000000000000000000000000000000000000000000000000815250815250600b906006620004b29291906200070f565b50348015620004c057600080fd5b506040518060400160405280600981526020017f5371756172654e465400000000000000000000000000000000000000000000008152506040518060400160405280600681526020017f53515541524500000000000000000000000000000000000000000000000000008152508160009080519060200190620005459291906200067e565b5080600190805190602001906200055e9291906200067e565b505050620005ac6040518060400160405280601e81526020017f54686973206973206d79204e465420636f6e74726163742e20576f6168210000815250620005b260201b620012cd1760201c565b62000930565b6200065281604051602401620005c99190620008a7565b6040516020818303038152906040527f41304fac000000000000000000000000000000000000000000000000000000007bffffffffffffffffffffffffffffffffffffffffffffffffffffffff19166020820180517bffffffffffffffffffffffffffffffffffffffffffffffffffffffff83818316178352505050506200065560201b60201c565b50565b60008151905060006a636f6e736f6c652e6c6f679050602083016000808483855afa5050505050565b8280546200068c90620008fa565b90600052602060002090601f016020900481019282620006b05760008555620006fc565b82601f10620006cb57805160ff1916838001178555620006fc565b82800160010185558215620006fc579182015b82811115620006fb578251825591602001919060010190620006de565b5b5090506200070b919062000776565b5090565b82805482825590600052602060002090810192821562000763579160200282015b8281111562000762578251829080519060200190620007519291906200067e565b509160200191906001019062000730565b5b50905062000772919062000795565b5090565b5b808211156200079157600081600090555060010162000777565b5090565b5b80821115620007b95760008181620007af9190620007bd565b5060010162000796565b5090565b508054620007cb90620008fa565b6000825580601f10620007df575062000800565b601f016020900490600052602060002090810190620007ff919062000776565b5b50565b600081519050919050565b600082825260208201905092915050565b60005b838110156200083f57808201518184015260208101905062000822565b838111156200084f576000848401525b50505050565b6000601f19601f8301169050919050565b6000620008738262000803565b6200087f81856200080e565b9350620008918185602086016200081f565b6200089c8162000855565b840191505092915050565b60006020820190508181036000830152620008c3818462000866565b905092915050565b7f4e487b7100000000000000000000000000000000000000000000000000000000600052602260045260246000fd5b600060028204905060018216806200091357607f821691505b602082108114156200092a5762000929620008cb565b5b50919050565b613b7c80620009406000396000f3fe608060405234801561001057600080fd5b50600436106101165760003560e01c8063775a25e3116100a2578063b88d4fde11610071578063b88d4fde14610305578063c575757a14610321578063c87b56dd14610351578063de9d132f14610381578063e985e9c51461038b57610116565b8063775a25e31461027d57806395d89b411461029b578063a22cb465146102b9578063b187301f146102d557610116565b806323b872dd116100e957806323b872dd146101b55780632de38d68146101d157806342842e0e146102015780636352211e1461021d57806370a082311461024d57610116565b806301ffc9a71461011b57806306fdde031461014b578063081812fc14610169578063095ea7b314610199575b600080fd5b6101356004803603810190610130919061236f565b6103bb565b60405161014291906123b7565b60405180910390f35b61015361049d565b604051610160919061246b565b60405180910390f35b610183600480360381019061017e91906124c3565b61052f565b6040516101909190612531565b60405180910390f35b6101b360048036038101906101ae9190612578565b6105b4565b005b6101cf60048036038101906101ca91906125b8565b6106cc565b005b6101eb60048036038101906101e691906124c3565b61072c565b6040516101f8919061246b565b60405180910390f35b61021b600480360381019061021691906125b8565b610824565b005b610237600480360381019061023291906124c3565b610844565b6040516102449190612531565b60405180910390f35b6102676004803603810190610262919061260b565b6108f6565b6040516102749190612647565b60405180910390f35b6102856109ae565b6040516102929190612647565b60405180910390f35b6102a3610a07565b6040516102b0919061246b565b60405180910390f35b6102d360048036038101906102ce919061268e565b610a99565b005b6102ef60048036038101906102ea91906124c3565b610c1a565b6040516102fc919061246b565b60405180910390f35b61031f600480360381019061031a9190612803565b610d12565b005b61033b600480360381019061033691906124c3565b610d74565b604051610348919061246b565b60405180910390f35b61036b600480360381019061036691906124c3565b610e6c565b604051610378919061246b565b60405180910390f35b610389610fbe565b005b6103a560048036038101906103a09190612886565b611239565b6040516103b291906123b7565b60405180910390f35b60007f80ac58cd000000000000000000000000000000000000000000000000000000007bffffffffffffffffffffffffffffffffffffffffffffffffffffffff1916827bffffffffffffffffffffffffffffffffffffffffffffffffffffffff1916148061048657507f5b5e139f000000000000000000000000000000000000000000000000000000007bffffffffffffffffffffffffffffffffffffffffffffffffffffffff1916827bffffffffffffffffffffffffffffffffffffffffffffffffffffffff1916145b80610496575061049582611366565b5b9050919050565b6060600080546104ac906128f5565b80601f01602080910402602001604051908101604052809291908181526020018280546104d8906128f5565b80156105255780601f106104fa57610100808354040283529160200191610525565b820191906000526020600020905b81548152906001019060200180831161050857829003601f168201915b5050505050905090565b600061053a826113d0565b610579576040517f08c379a000000000000000000000000000000000000000000000000000000000815260040161057090612999565b60405180910390fd5b6004600083815260200190815260200160002060009054906101000a900473ffffffffffffffffffffffffffffffffffffffff169050919050565b60006105bf82610844565b90508073ffffffffffffffffffffffffffffffffffffffff168373ffffffffffffffffffffffffffffffffffffffff161415610630576040517f08c379a000000000000000000000000000000000000000000000000000000000815260040161062790612a2b565b60405180910390fd5b8073ffffffffffffffffffffffffffffffffffffffff1661064f61143c565b73ffffffffffffffffffffffffffffffffffffffff16148061067e575061067d8161067861143c565b611239565b5b6106bd576040517f08c379a00000000000000000000000000000000000000000000000000000000081526004016106b490612abd565b60405180910390fd5b6106c78383611444565b505050565b6106dd6106d761143c565b826114fd565b61071c576040517f08c379a000000000000000000000000000000000000000000000000000000000815260040161071390612b4f565b60405180910390fd5b6107278383836115db565b505050565b6060600061076061073c84611837565b60405160200161074c9190612bf7565b604051602081830303815290604052611998565b9050600980549050816107739190612c48565b90506009818154811061078957610788612c79565b5b90600052602060002001805461079e906128f5565b80601f01602080910402602001604051908101604052809291908181526020018280546107ca906128f5565b80156108175780601f106107ec57610100808354040283529160200191610817565b820191906000526020600020905b8154815290600101906020018083116107fa57829003601f168201915b5050505050915050919050565b61083f83838360405180602001604052806000815250610d12565b505050565b6000806002600084815260200190815260200160002060009054906101000a900473ffffffffffffffffffffffffffffffffffffffff169050600073ffffffffffffffffffffffffffffffffffffffff168173ffffffffffffffffffffffffffffffffffffffff1614156108ed576040517f08c379a00000000000000000000000000000000000000000000000000000000081526004016108e490612d1a565b60405180910390fd5b80915050919050565b60008073ffffffffffffffffffffffffffffffffffffffff168273ffffffffffffffffffffffffffffffffffffffff161415610967576040517f08c379a000000000000000000000000000000000000000000000000000000000815260040161095e90612dac565b60405180910390fd5b600360008373ffffffffffffffffffffffffffffffffffffffff1673ffffffffffffffffffffffffffffffffffffffff168152602001908152602001600020549050919050565b60006109f86040518060400160405280600581526020017f544f54414c0000000000000000000000000000000000000000000000000000008152506109f360076119cb565b6119d9565b610a0260076119cb565b905090565b606060018054610a16906128f5565b80601f0160208091040260200160405190810160405280929190818152602001828054610a42906128f5565b8015610a8f5780601f10610a6457610100808354040283529160200191610a8f565b820191906000526020600020905b815481529060010190602001808311610a7257829003601f168201915b5050505050905090565b610aa161143c565b73ffffffffffffffffffffffffffffffffffffffff168273ffffffffffffffffffffffffffffffffffffffff161415610b0f576040517f08c379a0000000000000000000000000000000000000000000000000000000008152600401610b0690612e18565b60405180910390fd5b8060056000610b1c61143c565b73ffffffffffffffffffffffffffffffffffffffff1673ffffffffffffffffffffffffffffffffffffffff16815260200190815260200160002060008473ffffffffffffffffffffffffffffffffffffffff1673ffffffffffffffffffffffffffffffffffffffff16815260200190815260200160002060006101000a81548160ff0219169083151502179055508173ffffffffffffffffffffffffffffffffffffffff16610bc961143c565b73ffffffffffffffffffffffffffffffffffffffff167f17307eab39ab6107e8899845ad3d59bd9653f200f220920489ca2b5937696c3183604051610c0e91906123b7565b60405180910390a35050565b60606000610c4e610c2a84611837565b604051602001610c3a9190612e84565b604051602081830303815290604052611998565b9050600a8054905081610c619190612c48565b9050600a8181548110610c7757610c76612c79565b5b906000526020600020018054610c8c906128f5565b80601f0160208091040260200160405190810160405280929190818152602001828054610cb8906128f5565b8015610d055780601f10610cda57610100808354040283529160200191610d05565b820191906000526020600020905b815481529060010190602001808311610ce857829003601f168201915b5050505050915050919050565b610d23610d1d61143c565b836114fd565b610d62576040517f08c379a0000000000000000000000000000000000000000000000000000000008152600401610d5990612b4f565b60405180910390fd5b610d6e84848484611a75565b50505050565b60606000610da8610d8484611837565b604051602001610d949190612ef2565b604051602081830303815290604052611998565b9050600b8054905081610dbb9190612c48565b9050600b8181548110610dd157610dd0612c79565b5b906000526020600020018054610de6906128f5565b80601f0160208091040260200160405190810160405280929190818152602001828054610e12906128f5565b8015610e5f5780601f10610e3457610100808354040283529160200191610e5f565b820191906000526020600020905b815481529060010190602001808311610e4257829003601f168201915b5050505050915050919050565b6060610e77826113d0565b610eb6576040517f08c379a0000000000000000000000000000000000000000000000000000000008152600401610ead90612f86565b60405180910390fd5b6000600660008481526020019081526020016000208054610ed6906128f5565b80601f0160208091040260200160405190810160405280929190818152602001828054610f02906128f5565b8015610f4f5780601f10610f2457610100808354040283529160200191610f4f565b820191906000526020600020905b815481529060010190602001808311610f3257829003601f168201915b505050505090506000610f60611ad1565b9050600081511415610f76578192505050610fb9565b600082511115610fab578082604051602001610f93929190612fa6565b60405160208183030381529060405292505050610fb9565b610fb484611ae8565b925050505b919050565b600f610fca60076119cb565b1061100a576040517f08c379a000000000000000000000000000000000000000000000000000000000815260040161100190613016565b60405180910390fd5b600061101660076119cb565b90506110606040518060400160405280600781526020017f63757272656e740000000000000000000000000000000000000000000000000081525061105b60076119cb565b6119d9565b600061106b8261072c565b9050600061107883610c1a565b9050600061108584610d74565b9050600083838360405160200161109e93929190613036565b604051602081830303815290604052905060006008826040516020016110c5929190613147565b6040516020818303038152906040529050600061110a836110e584611b8f565b6040516020016110f69291906132cc565b604051602081830303815290604052611b8f565b905060008160405160200161111f919061335d565b604051602081830303815290604052905061116e6040518060400160405280601581526020017f0a2d2d2d2d2d2d2d2d2d2d2d2d2d2d2d2d2d2d2d2d00000000000000000000008152506112cd565b611177816112cd565b6111b56040518060400160405280601581526020017f2d2d2d2d2d2d2d2d2d2d2d2d2d2d2d2d2d2d2d2d0a00000000000000000000008152506112cd565b6111bf3389611d27565b6111c98882611d45565b6111d36007611db9565b6111f6604051806060016040528060258152602001613ae2602591398933611dcf565b7febb98688741ffa4c7589bf325de30cf7becb63de567842e1ccdb6cb949fdc82c338960405161122792919061337f565b60405180910390a15050505050505050565b6000600560008473ffffffffffffffffffffffffffffffffffffffff1673ffffffffffffffffffffffffffffffffffffffff16815260200190815260200160002060008373ffffffffffffffffffffffffffffffffffffffff1673ffffffffffffffffffffffffffffffffffffffff16815260200190815260200160002060009054906101000a900460ff16905092915050565b611363816040516024016112e1919061246b565b6040516020818303038152906040527f41304fac000000000000000000000000000000000000000000000000000000007bffffffffffffffffffffffffffffffffffffffffffffffffffffffff19166020820180517bffffffffffffffffffffffffffffffffffffffffffffffffffffffff8381831617835250505050611e6e565b50565b60007f01ffc9a7000000000000000000000000000000000000000000000000000000007bffffffffffffffffffffffffffffffffffffffffffffffffffffffff1916827bffffffffffffffffffffffffffffffffffffffffffffffffffffffff1916149050919050565b60008073ffffffffffffffffffffffffffffffffffffffff166002600084815260200190815260200160002060009054906101000a900473ffffffffffffffffffffffffffffffffffffffff1673ffffffffffffffffffffffffffffffffffffffff1614159050919050565b600033905090565b816004600083815260200190815260200160002060006101000a81548173ffffffffffffffffffffffffffffffffffffffff021916908373ffffffffffffffffffffffffffffffffffffffff160217905550808273ffffffffffffffffffffffffffffffffffffffff166114b783610844565b73ffffffffffffffffffffffffffffffffffffffff167f8c5be1e5ebec7d5bd14f71427d1e84f3dd0314c0f7b2291e5b200ac8c7c3b92560405160405180910390a45050565b6000611508826113d0565b611547576040517f08c379a000000000000000000000000000000000000000000000000000000000815260040161153e9061341a565b60405180910390fd5b600061155283610844565b90508073ffffffffffffffffffffffffffffffffffffffff168473ffffffffffffffffffffffffffffffffffffffff1614806115c157508373ffffffffffffffffffffffffffffffffffffffff166115a98461052f565b73ffffffffffffffffffffffffffffffffffffffff16145b806115d257506115d18185611239565b5b91505092915050565b8273ffffffffffffffffffffffffffffffffffffffff166115fb82610844565b73ffffffffffffffffffffffffffffffffffffffff1614611651576040517f08c379a0000000000000000000000000000000000000000000000000000000008152600401611648906134ac565b60405180910390fd5b600073ffffffffffffffffffffffffffffffffffffffff168273ffffffffffffffffffffffffffffffffffffffff1614156116c1576040517f08c379a00000000000000000000000000000000000000000000000000000000081526004016116b89061353e565b60405180910390fd5b6116cc838383611e97565b6116d7600082611444565b6001600360008573ffffffffffffffffffffffffffffffffffffffff1673ffffffffffffffffffffffffffffffffffffffff1681526020019081526020016000206000828254611727919061358d565b925050819055506001600360008473ffffffffffffffffffffffffffffffffffffffff1673ffffffffffffffffffffffffffffffffffffffff168152602001908152602001600020600082825461177e91906135c1565b92505081905550816002600083815260200190815260200160002060006101000a81548173ffffffffffffffffffffffffffffffffffffffff021916908373ffffffffffffffffffffffffffffffffffffffff160217905550808273ffffffffffffffffffffffffffffffffffffffff168473ffffffffffffffffffffffffffffffffffffffff167fddf252ad1be2c89b69c2b068fc378daa952ba7f163c4a11628f55a4df523b3ef60405160405180910390a4505050565b6060600082141561187f576040518060400160405280600181526020017f30000000000000000000000000000000000000000000000000000000000000008152509050611993565b600082905060005b600082146118b157808061189a90613617565b915050600a826118aa9190613660565b9150611887565b60008167ffffffffffffffff8111156118cd576118cc6126d8565b5b6040519080825280601f01601f1916602001820160405280156118ff5781602001600182028036833780820191505090505b5090505b6000851461198c57600182611918919061358d565b9150600a856119279190612c48565b603061193391906135c1565b60f81b81838151811061194957611948612c79565b5b60200101907effffffffffffffffffffffffffffffffffffffffffffffffffffffffffffff1916908160001a905350600a856119859190613660565b9450611903565b8093505050505b919050565b6000816040516020016119ab9190613691565b6040516020818303038152906040528051906020012060001c9050919050565b600081600001549050919050565b611a7182826040516024016119ef9291906136a8565b6040516020818303038152906040527f9710a9d0000000000000000000000000000000000000000000000000000000007bffffffffffffffffffffffffffffffffffffffffffffffffffffffff19166020820180517bffffffffffffffffffffffffffffffffffffffffffffffffffffffff8381831617835250505050611e6e565b5050565b611a808484846115db565b611a8c84848484611e9c565b611acb576040517f08c379a0000000000000000000000000000000000000000000000000000000008152600401611ac29061374a565b60405180910390fd5b50505050565b606060405180602001604052806000815250905090565b6060611af3826113d0565b611b32576040517f08c379a0000000000000000000000000000000000000000000000000000000008152600401611b29906137dc565b60405180910390fd5b6000611b3c611ad1565b90506000815111611b5c5760405180602001604052806000815250611b87565b80611b6684611837565b604051602001611b77929190612fa6565b6040516020818303038152906040525b915050919050565b60606000825190506000811415611bb85760405180602001604052806000815250915050611d22565b60006003600283611bc991906135c1565b611bd39190613660565b6004611bdf91906137fc565b90506000602082611bf091906135c1565b67ffffffffffffffff811115611c0957611c086126d8565b5b6040519080825280601f01601f191660200182016040528015611c3b5781602001600182028036833780820191505090505b5090506000604051806060016040528060408152602001613b07604091399050600181016020830160005b86811015611cdf5760038101905062ffffff818a015116603f8160121c168401518060081b905060ff603f83600c1c1686015116810190508060081b905060ff603f8360061c1686015116810190508060081b905060ff603f831686015116810190508060e01b90508084526004840193505050611c66565b506003860660018114611cf95760028114611d0957611d14565b613d3d60f01b6002830352611d14565b603d60f81b60018303525b508484525050819450505050505b919050565b611d41828260405180602001604052806000815250612024565b5050565b611d4e826113d0565b611d8d576040517f08c379a0000000000000000000000000000000000000000000000000000000008152600401611d84906138c8565b60405180910390fd5b80600660008481526020019081526020016000209080519060200190611db4929190612260565b505050565b6001816000016000828254019250508190555050565b611e69838383604051602401611de7939291906138e8565b6040516020818303038152906040527fe3849f79000000000000000000000000000000000000000000000000000000007bffffffffffffffffffffffffffffffffffffffffffffffffffffffff19166020820180517bffffffffffffffffffffffffffffffffffffffffffffffffffffffff8381831617835250505050611e6e565b505050565b60008151905060006a636f6e736f6c652e6c6f679050602083016000808483855afa5050505050565b505050565b6000611ebd8473ffffffffffffffffffffffffffffffffffffffff1661207f565b15612017578373ffffffffffffffffffffffffffffffffffffffff1663150b7a02611ee661143c565b8786866040518563ffffffff1660e01b8152600401611f08949392919061397b565b6020604051808303816000875af1925050508015611f4457506040513d601f19601f82011682018060405250810190611f4191906139dc565b60015b611fc7573d8060008114611f74576040519150601f19603f3d011682016040523d82523d6000602084013e611f79565b606091505b50600081511415611fbf576040517f08c379a0000000000000000000000000000000000000000000000000000000008152600401611fb69061374a565b60405180910390fd5b805181602001fd5b63150b7a0260e01b7bffffffffffffffffffffffffffffffffffffffffffffffffffffffff1916817bffffffffffffffffffffffffffffffffffffffffffffffffffffffff19161491505061201c565b600190505b949350505050565b61202e8383612092565b61203b6000848484611e9c565b61207a576040517f08c379a00000000000000000000000000000000000000000000000000000000081526004016120719061374a565b60405180910390fd5b505050565b600080823b905060008111915050919050565b600073ffffffffffffffffffffffffffffffffffffffff168273ffffffffffffffffffffffffffffffffffffffff161415612102576040517f08c379a00000000000000000000000000000000000000000000000000000000081526004016120f990613a55565b60405180910390fd5b61210b816113d0565b1561214b576040517f08c379a000000000000000000000000000000000000000000000000000000000815260040161214290613ac1565b60405180910390fd5b61215760008383611e97565b6001600360008473ffffffffffffffffffffffffffffffffffffffff1673ffffffffffffffffffffffffffffffffffffffff16815260200190815260200160002060008282546121a791906135c1565b92505081905550816002600083815260200190815260200160002060006101000a81548173ffffffffffffffffffffffffffffffffffffffff021916908373ffffffffffffffffffffffffffffffffffffffff160217905550808273ffffffffffffffffffffffffffffffffffffffff16600073ffffffffffffffffffffffffffffffffffffffff167fddf252ad1be2c89b69c2b068fc378daa952ba7f163c4a11628f55a4df523b3ef60405160405180910390a45050565b82805461226c906128f5565b90600052602060002090601f01602090048101928261228e57600085556122d5565b82601f106122a757805160ff19168380011785556122d5565b828001600101855582156122d5579182015b828111156122d45782518255916020019190600101906122b9565b5b5090506122e291906122e6565b5090565b5b808211156122ff5760008160009055506001016122e7565b5090565b6000604051905090565b600080fd5b600080fd5b60007fffffffff0000000000000000000000000000000000000000000000000000000082169050919050565b61234c81612317565b811461235757600080fd5b50565b60008135905061236981612343565b92915050565b6000602082840312156123855761238461230d565b5b60006123938482850161235a565b91505092915050565b60008115159050919050565b6123b18161239c565b82525050565b60006020820190506123cc60008301846123a8565b92915050565b600081519050919050565b600082825260208201905092915050565b60005b8381101561240c5780820151818401526020810190506123f1565b8381111561241b576000848401525b50505050565b6000601f19601f8301169050919050565b600061243d826123d2565b61244781856123dd565b93506124578185602086016123ee565b61246081612421565b840191505092915050565b600060208201905081810360008301526124858184612432565b905092915050565b6000819050919050565b6124a08161248d565b81146124ab57600080fd5b50565b6000813590506124bd81612497565b92915050565b6000602082840312156124d9576124d861230d565b5b60006124e7848285016124ae565b91505092915050565b600073ffffffffffffffffffffffffffffffffffffffff82169050919050565b600061251b826124f0565b9050919050565b61252b81612510565b82525050565b60006020820190506125466000830184612522565b92915050565b61255581612510565b811461256057600080fd5b50565b6000813590506125728161254c565b92915050565b6000806040838503121561258f5761258e61230d565b5b600061259d85828601612563565b92505060206125ae858286016124ae565b9150509250929050565b6000806000606084860312156125d1576125d061230d565b5b60006125df86828701612563565b93505060206125f086828701612563565b9250506040612601868287016124ae565b9150509250925092565b6000602082840312156126215761262061230d565b5b600061262f84828501612563565b91505092915050565b6126418161248d565b82525050565b600060208201905061265c6000830184612638565b92915050565b61266b8161239c565b811461267657600080fd5b50565b60008135905061268881612662565b92915050565b600080604083850312156126a5576126a461230d565b5b60006126b385828601612563565b92505060206126c485828601612679565b9150509250929050565b600080fd5b600080fd5b7f4e487b7100000000000000000000000000000000000000000000000000000000600052604160045260246000fd5b61271082612421565b810181811067ffffffffffffffff8211171561272f5761272e6126d8565b5b80604052505050565b6000612742612303565b905061274e8282612707565b919050565b600067ffffffffffffffff82111561276e5761276d6126d8565b5b61277782612421565b9050602081019050919050565b82818337600083830152505050565b60006127a66127a184612753565b612738565b9050828152602081018484840111156127c2576127c16126d3565b5b6127cd848285612784565b509392505050565b600082601f8301126127ea576127e96126ce565b5b81356127fa848260208601612793565b91505092915050565b6000806000806080858703121561281d5761281c61230d565b5b600061282b87828801612563565b945050602061283c87828801612563565b935050604061284d878288016124ae565b925050606085013567ffffffffffffffff81111561286e5761286d612312565b5b61287a878288016127d5565b91505092959194509250565b6000806040838503121561289d5761289c61230d565b5b60006128ab85828601612563565b92505060206128bc85828601612563565b9150509250929050565b7f4e487b7100000000000000000000000000000000000000000000000000000000600052602260045260246000fd5b6000600282049050600182168061290d57607f821691505b60208210811415612921576129206128c6565b5b50919050565b7f4552433732313a20617070726f76656420717565727920666f72206e6f6e657860008201527f697374656e7420746f6b656e0000000000000000000000000000000000000000602082015250565b6000612983602c836123dd565b915061298e82612927565b604082019050919050565b600060208201905081810360008301526129b281612976565b9050919050565b7f4552433732313a20617070726f76616c20746f2063757272656e74206f776e6560008201527f7200000000000000000000000000000000000000000000000000000000000000602082015250565b6000612a156021836123dd565b9150612a20826129b9565b604082019050919050565b60006020820190508181036000830152612a4481612a08565b9050919050565b7f4552433732313a20617070726f76652063616c6c6572206973206e6f74206f7760008201527f6e6572206e6f7220617070726f76656420666f7220616c6c0000000000000000602082015250565b6000612aa76038836123dd565b9150612ab282612a4b565b604082019050919050565b60006020820190508181036000830152612ad681612a9a565b9050919050565b7f4552433732313a207472616e736665722063616c6c6572206973206e6f74206f60008201527f776e6572206e6f7220617070726f766564000000000000000000000000000000602082015250565b6000612b396031836123dd565b9150612b4482612add565b604082019050919050565b60006020820190508181036000830152612b6881612b2c565b9050919050565b600081905092915050565b7f46495253545f574f524400000000000000000000000000000000000000000000600082015250565b6000612bb0600a83612b6f565b9150612bbb82612b7a565b600a82019050919050565b6000612bd1826123d2565b612bdb8185612b6f565b9350612beb8185602086016123ee565b80840191505092915050565b6000612c0282612ba3565b9150612c0e8284612bc6565b915081905092915050565b7f4e487b7100000000000000000000000000000000000000000000000000000000600052601260045260246000fd5b6000612c538261248d565b9150612c5e8361248d565b925082612c6e57612c6d612c19565b5b828206905092915050565b7f4e487b7100000000000000000000000000000000000000000000000000000000600052603260045260246000fd5b7f4552433732313a206f776e657220717565727920666f72206e6f6e657869737460008201527f656e7420746f6b656e0000000000000000000000000000000000000000000000602082015250565b6000612d046029836123dd565b9150612d0f82612ca8565b604082019050919050565b60006020820190508181036000830152612d3381612cf7565b9050919050565b7f4552433732313a2062616c616e636520717565727920666f7220746865207a6560008201527f726f206164647265737300000000000000000000000000000000000000000000602082015250565b6000612d96602a836123dd565b9150612da182612d3a565b604082019050919050565b60006020820190508181036000830152612dc581612d89565b9050919050565b7f4552433732313a20617070726f766520746f2063616c6c657200000000000000600082015250565b6000612e026019836123dd565b9150612e0d82612dcc565b602082019050919050565b60006020820190508181036000830152612e3181612df5565b9050919050565b7f5345434f4e445f574f5244000000000000000000000000000000000000000000600082015250565b6000612e6e600b83612b6f565b9150612e7982612e38565b600b82019050919050565b6000612e8f82612e61565b9150612e9b8284612bc6565b915081905092915050565b7f54484952445f574f524400000000000000000000000000000000000000000000600082015250565b6000612edc600a83612b6f565b9150612ee782612ea6565b600a82019050919050565b6000612efd82612ecf565b9150612f098284612bc6565b915081905092915050565b7f45524337323155524953746f726167653a2055524920717565727920666f722060008201527f6e6f6e6578697374656e7420746f6b656e000000000000000000000000000000602082015250565b6000612f706031836123dd565b9150612f7b82612f14565b604082019050919050565b60006020820190508181036000830152612f9f81612f63565b9050919050565b6000612fb28285612bc6565b9150612fbe8284612bc6565b91508190509392505050565b7f6c696d6974206973207265616368656400000000000000000000000000000000600082015250565b60006130006010836123dd565b915061300b82612fca565b602082019050919050565b6000602082019050818103600083015261302f81612ff3565b9050919050565b60006130428286612bc6565b915061304e8285612bc6565b915061305a8284612bc6565b9150819050949350505050565b60008190508160005260206000209050919050565b60008154613089816128f5565b6130938186612b6f565b945060018216600081146130ae57600181146130bf576130f2565b60ff198316865281860193506130f2565b6130c885613067565b60005b838110156130ea578154818901526001820191506020810190506130cb565b838801955050505b50505092915050565b7f3c2f746578743e3c2f7376673e00000000000000000000000000000000000000600082015250565b6000613131600d83612b6f565b915061313c826130fb565b600d82019050919050565b6000613153828561307c565b915061315f8284612bc6565b915061316a82613124565b91508190509392505050565b7f7b226e616d65223a202200000000000000000000000000000000000000000000600082015250565b60006131ac600a83612b6f565b91506131b782613176565b600a82019050919050565b7f222c20226465736372697074696f6e223a20224120686967686c79206163636c60008201527f61696d656420636f6c6c656374696f6e206f6620737175617265732e222c202260208201527f696d616765223a2022646174613a696d6167652f7376672b786d6c3b6261736560408201527f36342c0000000000000000000000000000000000000000000000000000000000606082015250565b600061326a606383612b6f565b9150613275826131c2565b606382019050919050565b7f227d000000000000000000000000000000000000000000000000000000000000600082015250565b60006132b6600283612b6f565b91506132c182613280565b600282019050919050565b60006132d78261319f565b91506132e38285612bc6565b91506132ee8261325d565b91506132fa8284612bc6565b9150613305826132a9565b91508190509392505050565b7f646174613a6170706c69636174696f6e2f6a736f6e3b6261736536342c000000600082015250565b6000613347601d83612b6f565b915061335282613311565b601d82019050919050565b60006133688261333a565b91506133748284612bc6565b915081905092915050565b60006040820190506133946000830185612522565b6133a16020830184612638565b9392505050565b7f4552433732313a206f70657261746f7220717565727920666f72206e6f6e657860008201527f697374656e7420746f6b656e0000000000000000000000000000000000000000602082015250565b6000613404602c836123dd565b915061340f826133a8565b604082019050919050565b60006020820190508181036000830152613433816133f7565b9050919050565b7f4552433732313a207472616e73666572206f6620746f6b656e2074686174206960008201527f73206e6f74206f776e0000000000000000000000000000000000000000000000602082015250565b60006134966029836123dd565b91506134a18261343a565b604082019050919050565b600060208201905081810360008301526134c581613489565b9050919050565b7f4552433732313a207472616e7366657220746f20746865207a65726f2061646460008201527f7265737300000000000000000000000000000000000000000000000000000000602082015250565b60006135286024836123dd565b9150613533826134cc565b604082019050919050565b600060208201905081810360008301526135578161351b565b9050919050565b7f4e487b7100000000000000000000000000000000000000000000000000000000600052601160045260246000fd5b60006135988261248d565b91506135a38361248d565b9250828210156135b6576135b561355e565b5b828203905092915050565b60006135cc8261248d565b91506135d78361248d565b9250827fffffffffffffffffffffffffffffffffffffffffffffffffffffffffffffffff0382111561360c5761360b61355e565b5b828201905092915050565b60006136228261248d565b91507fffffffffffffffffffffffffffffffffffffffffffffffffffffffffffffffff8214156136555761365461355e565b5b600182019050919050565b600061366b8261248d565b91506136768361248d565b92508261368657613685612c19565b5b828204905092915050565b600061369d8284612bc6565b915081905092915050565b600060408201905081810360008301526136c28185612432565b90506136d16020830184612638565b9392505050565b7f4552433732313a207472616e7366657220746f206e6f6e20455243373231526560008201527f63656976657220696d706c656d656e7465720000000000000000000000000000602082015250565b60006137346032836123dd565b915061373f826136d8565b604082019050919050565b6000602082019050818103600083015261376381613727565b9050919050565b7f4552433732314d657461646174613a2055524920717565727920666f72206e6f60008201527f6e6578697374656e7420746f6b656e0000000000000000000000000000000000602082015250565b60006137c6602f836123dd565b91506137d18261376a565b604082019050919050565b600060208201905081810360008301526137f5816137b9565b9050919050565b60006138078261248d565b91506138128361248d565b9250817fffffffffffffffffffffffffffffffffffffffffffffffffffffffffffffffff048311821515161561384b5761384a61355e565b5b828202905092915050565b7f45524337323155524953746f726167653a2055524920736574206f66206e6f6e60008201527f6578697374656e7420746f6b656e000000000000000000000000000000000000602082015250565b60006138b2602e836123dd565b91506138bd82613856565b604082019050919050565b600060208201905081810360008301526138e1816138a5565b9050919050565b600060608201905081810360008301526139028186612432565b90506139116020830185612638565b61391e6040830184612522565b949350505050565b600081519050919050565b600082825260208201905092915050565b600061394d82613926565b6139578185613931565b93506139678185602086016123ee565b61397081612421565b840191505092915050565b60006080820190506139906000830187612522565b61399d6020830186612522565b6139aa6040830185612638565b81810360608301526139bc8184613942565b905095945050505050565b6000815190506139d681612343565b92915050565b6000602082840312156139f2576139f161230d565b5b6000613a00848285016139c7565b91505092915050565b7f4552433732313a206d696e7420746f20746865207a65726f2061646472657373600082015250565b6000613a3f6020836123dd565b9150613a4a82613a09565b602082019050919050565b60006020820190508181036000830152613a6e81613a32565b9050919050565b7f4552433732313a20746f6b656e20616c7265616479206d696e74656400000000600082015250565b6000613aab601c836123dd565b9150613ab682613a75565b602082019050919050565b60006020820190508181036000830152613ada81613a9e565b905091905056fe416e204e465420772f20494420257320686173206265656e206d696e74656420746f2025734142434445464748494a4b4c4d4e4f505152535455565758595a6162636465666768696a6b6c6d6e6f707172737475767778797a303132333435363738392b2fa264697066735822122087436aaceaae9f5ca66ccbce7e779082a08c37d1e4e103da4259b7052137aa7564736f6c634300080a00333c73766720786d6c6e733d27687474703a2f2f7777772e77332e6f72672f323030302f73766727207072657365727665417370656374526174696f3d27784d696e594d696e206d656574272076696577426f783d273020302033353020333530273e3c7374796c653e2e62617365207b2066696c6c3a2077686974653b20666f6e742d66616d696c793a2073657269663b20666f6e742d73697a653a20313870783b207d3c2f7374796c653e3c726563742077696474683d273130302527206865696768743d2731303025272066696c6c3d2762726f776e27202f3e3c7465787420783d273530252720793d273530252720636c6173733d27626173652720646f6d696e616e742d626173656c696e653d276d6964646c652720746578742d616e63686f723d276d6964646c65273e",
  "linkReferences": {},
  "deployedLinkReferences": {}
}